:100000000C9434000C9446000C9446000C9446006A
:100010000C9446000C9446000C9446000C94460048
:100020000C9446000C9446000C9446000C94460038
:100030000C9446000C9446000C94A8000C944600C6
:100040000C9446000C9446000C9446000C94460018
:100050000C9446000C9446000C9446000C94460008
:100060000C9446000C94460011241FBECFEFD8E03C
:10007000DEBFCDBF21E0A0E0B1E001C01D92A43001
:10008000B207E1F70E9448000C94E2000C940000D3
:100090000E94CC0078944FEF60E08FEF0E94CF0079
:1000A000FFCF84B1846084B984B1826084B984B1A3
:1000B000806284B984B5836884BD85B5836085BD5D
:1000C00089EF87BDEEE6F0E080818260808308954D
:1000D000823019F4609303010895813019F460931C
:1000E00002010895853011F4609301010895809113
:1000F00000018F5F80930001843110F010920001A5
:100100009091000180910301981720F485B18460DB
:1001100085B903C085B18B7F85B99091000180912D
:100120000201981720F485B1826085B903C085B1BA
:100130008D7F85B99091000180910101981720F47D
:1001400085B1806285B9089585B18F7D85B908959F
:100150001F920F920FB60F9211242F933F934F933C
:100160005F936F937F938F939F93AF93BF93EF931F
:10017000FF930E947700FF91EF91BF91AF919F9104
:100180008F917F916F915F914F913F912F910F9040
:100190000FBE0F901F9018950E9451000895CF93A5
:1001A000DF93D62FC42F682F82E00E9468006D2F46
:1001B00081E00E9468006C2F85E00E946800DF915A
:0801C000CF910895F894FFCFE0
:00000001FF
