S00F00007470342D656E742E7372656389
S11300000C9434000C9446000C9446000C94460066
S11300100C9446000C9446000C9446000C94460044
S11300200C9446000C9446000C9446000C94460034
S11300300C9446000C9446000C94E6000C94460084
S11300400C9446000C9446000C9446000C94460014
S11300500C9446000C9446000C9446000C94460004
S11300600C9446000C94460011241FBECFEFD8E038
S1130070DEBFCDBF21E0A0E0B1E001C01D92A430FD
S1130080B207E1F70E9481000C9420010C94000057
S1130090EAE7F0E0808186688083ECE7F0E0808125
S11300A08064808380818F7D80830895ECE7F0E015
S11300B08081807F8083808183608083EAE7F0E0B1
S11300C080818064808380917A0084FFFCCFEAE79A
S11300D0F0E08081806180832091780080917900B4
S11300E090E0982F8827822B089583E00E94560081
S11300F096958795969587954FEF6FEF0E940D0122
S1130100089517B80E940A0178940E9448004FEF9E
S113011064E68FEF0E940D010E947500FDCF84B14B
S1130120806284B984B1826084B984B1846084B902
S113013084B5836884BD85B5826085BD8BE387BD46
S1130140EEE6F0E08081826080830895853019F4C2
S1130150609303010895813019F4609302010895B6
S1130160823011F4609301010895809100018F5F42
S113017080930001863910F01092000190910001E3
S113018080910301981720F485B1806285B903C07A
S113019085B18F7D85B990910001809102019817F6
S11301A020F485B1826085B903C085B18D7F85B99E
S11301B09091000180910101981720F485B1846029
S11301C085B9089585B18B7F85B908951F920F92E3
S11301D00FB60F9211242F933F934F935F936F9316
S11301E07F938F939F93AF93BF93EF93FF930E945B
S11301F0B500FF91EF91BF91AF919F918F917F9146
S11302006F915F914F913F912F910F900FBE0F907F
S11302101F9018950E948F000895CF93DF93C82FE5
S1130220D62F642F82E00E94A6006D2F81E00E94E9
S1130230A6006C2F85E00E94A600DF91CF9108955F
S1070240F894FFCF5C
S9030000FC
