:100000000C9434000C9446000C9446000C9446006A
:100010000C9446000C9446000C9446000C94460048
:100020000C9446000C9446000C9446000C94460038
:100030000C9446000C9446000C945D000C94460011
:100040000C9446000C9446000C9446000C94460018
:100050000C9446000C9446000C9446000C94460008
:100060000C9446000C94460011241FBECFEFD8E03C
:10007000DEBFCDBF21E0A0E0B1E001C01D92A13004
:10008000B207E1F70E9481000C9493000C940000E9
:10009000809100018F5F80930001843110F01092F5
:1000A000000180910001833120F485B1806285B91F
:1000B000089585B18F7D85B908951F920F920FB66F
:1000C0000F9211242F933F934F935F936F937F93DE
:1000D0008F939F93AF93BF93EF93FF930E9448003A
:1000E000FF91EF91BF91AF919F918F917F916F9110
:1000F0005F914F913F912F910F900FBE0F901F90E6
:10010000189584B1866284B984B5836884BD85B549
:10011000836085BD89EF87BDEEE6F0E08081826077
:0A01200080837894FFCFF894FFCF9E
:00000001FF
