:100000000C9434000C9446000C9446000C9446006A
:100010000C9446000C9446000C9446000C94460048
:100020000C9446000C9446000C9446000C94460038
:100030000C9446000C9446000C94D7000C94460097
:100040000C9446000C9446000C9446000C94460018
:100050000C9446000C9446000C9446000C94460008
:100060000C9446000C94460011241FBECFEFD8E03C
:10007000DEBFCDBF21E0A0E0B1E001C01D92A43001
:10008000B207E1F70E946F000C9411010C9400007C
:10009000ECE7F0E09081907F90839081892B8083C2
:1000A000EAE7F0E080818064808380917A0084FFB9
:1000B000FCCFEAE7F0E08081806180838091780066
:1000C00090917900089583E00E9448009695879565
:1000D00096958795482F682F0E94FE0008950E94EC
:1000E000FB00789440E06FEF80E00E94FE000E94E9
:1000F00063008FE19EE40197F1F700C00000F7CFA5
:1001000084B1846084B984B1826084B984B180622E
:1001100084B984B5836884BD85B5836085BD89EF66
:1001200087BDEEE6F0E080818260808308958230B2
:1001300019F4609303010895813019F4609302016A
:100140000895853011F460930101089580910001B4
:100150008F5F80930001843110F010920001909124
:10016000000180910301981720F485B1846085B95E
:1001700003C085B18B7F85B9909100018091020108
:10018000981720F485B1826085B903C085B18D7F51
:1001900085B99091000180910101981720F485B1F3
:1001A000806285B9089585B18F7D85B908951F92C4
:1001B0000F920FB60F9211242F933F934F935F939B
:1001C0006F937F938F939F93AF93BF93EF93FF931F
:1001D0000E94A600FF91EF91BF91AF919F918F91E7
:1001E0007F916F915F914F913F912F910F900FBE33
:1001F0000F901F9018950E9480000895CF93DF9371
:10020000D62FC42F682F82E00E9497006D2F81E0C7
:100210000E9497006C2F85E00E949700DF91CF919C
:060220000895F894FFCFE1
:00000001FF
