S00F00007470342D656E742E7372656389
S11300000C9434000C9446000C9446000C94460066
S11300100C9446000C9446000C9446000C94460044
S11300200C9446000C9446000C9446000C94460034
S11300300C9446000C9446000C94AA000C944600C0
S11300400C9446000C9446000C9446000C94460014
S11300500C9446000C9446000C9446000C94460004
S11300600C9446000C94460011241FBECFEFD8E038
S1130070DEBFCDBF21E0A0E0B1E001C01D92A730FA
S1130080B207E1F70E94F2000C942F010C940000D7
S1130090809104018F5F80930401843110F01092E9
S11300A00401809104018A3020F485B1816085B90E
S11300B0089585B18E7F85B90895809103018F5F7E
S11300C080930301843110F01092030180910201A6
S11300D08F5F80930201843110F0109202018091AD
S11300E001018F5F80930101843110F010920101AE
S11300F02091030130E08091060144E1849FC00116
S113010011246FEF70E00E9407012617370724F4CB
S113011085B1806285B903C085B18F7D85B985B10C
S11301208B7F85B92091010130E08091050144E184
S1130130849FC00111246FEF70E00E94070126170D
S1130140370724F485B1826085B9089585B18D7F20
S113015085B908951F920F920FB60F9211242F9311
S11301603F934F935F936F937F938F939F93AF933B
S1130170BF93EF93FF930E9448000E945D002FEF0E
S113018089E698E1215080409040E1F700C00000EA
S1130190809100018F5F80930001823011F41092EE
S11301A0000180910001811105C09FEF909305012A
S11301B010920601813029F4109205018FEF80938B
S11301C00601FF91EF91BF91AF919F918F917F9124
S11301D06F915F914F913F912F910F900FBE0F90B0
S11301E01F90189584B1816084B984B1866284B902
S11301F084B5836C84BD85B5836085BD8AE087BD85
S1130200EEE6F0E08081826080837894FFCF97FBF4
S1130210072E16F4009407D077FD09D00E941B0125
S113022007FC05D03EF4909581959F4F08957095F5
S113023061957F4F0895AA1BBB1B51E107C0AA1FFC
S1130240BB1FA617B70710F0A61BB70B881F991F73
S11302505A95A9F780959095BC01CD010895F8941D
S1050260FFCFCA
S9030000FC
