:100000000C9434000C9451000C9451000C94510049
:100010000C9451000C9451000C9451000C9451001C
:100020000C9451000C9451000C9451000C9451000C
:100030000C9451000C9451000C9443010C94510009
:100040000C9451000C9451000C94FC010C940F0280
:100050000C9451000C9451000C9451000C945100DC
:100060000C9451000C94510011241FBECFEFD8E026
:10007000DEBFCDBF11E0A0E0B1E0E2EAF4E002C0F3
:1000800005900D92A636B107D9F721E0A6E6B1E0BA
:1000900001C01D92A83DB207E1F70E94A3000C9495
:1000A0004F020C940000EAE7F0E0808186688083CC
:1000B000ECE7F0E080818064808380818F7D8083A5
:1000C0000895ECE7F0E08081807F80838081836009
:1000D0008083EAE7F0E080818064808380917A0009
:1000E00084FFFCCFEAE7F0E080818061808320918B
:1000F00078008091790090E0982F8827822B0895CE
:1001000083E00E946100969587959695879508955E
:10011000873451F0823519F0823481F40AC08AE5BF
:1001200091E00E94D70108958CE591E00E94D701EB
:1001300008958EE591E00E94D701089580E691E050
:100140000E94D701089517B80E94CD010E9467014F
:100150000E94530078940E9490012FEF81EE94E06A
:10016000215080409040E1F700C000000E949601BD
:100170002FEF81EE94E0215080409040E1F700C0E5
:1001800000000E949C012FEF81EE94E021508040FE
:100190009040E1F700C000004FEF6FEF8FEF0E943B
:1001A0006A0180E091E00E94D701C2E50E94F3015C
:1001B000882359F00E94F901C82F0E94880082E626
:1001C00091E00E94D7010E94F6010E948000682FF2
:1001D0008C2F0E947D01EACF84B1806284B984B102
:1001E000826084B984B1846084B984B5836884BD35
:1001F00085B5826085BD8BE387BDEEE6F0E080814A
:10020000826080830895853019F4609369010895B0
:10021000813019F4609368010895823011F460937D
:1002200067010895809166018F5F8093660186392A
:1002300010F0109266019091660180916901981703
:1002400020F485B1806285B903C085B18F7D85B901
:100250009091660180916801981720F485B18260C1
:1002600085B903C085B18D7F85B990916601809174
:100270006701981720F485B1846085B9089585B128
:100280008B7F85B908951F920F920FB60F9211249C
:100290002F933F934F935F936F937F938F939F938E
:1002A000AF93BF93EF93FF930E941201FF91EF91E1
:1002B000BF91AF919F918F917F916F915F914F917E
:1002C0003F912F910F900FBE0F901F9018950E9495
:1002D000EC000895CF93DF93C82FD62F642F82E0D0
:1002E0000E9403016D2F81E00E9403016C2F85E0C5
:1002F0000E940301DF91CF910895873449F0823540
:1003000019F0823461F408C085E00E940301089569
:1003100082E00E940301089581E00E940301089594
:1003200040E060E088E70E946A01089540E068E7E5
:1003300080E00E946A01089548E760E080E00E9442
:100340006A0108951092C10096E09093C200109245
:10035000C5008093C4000895E1ECF0E080818860DE
:1003600080830895E1ECF0E08081806280830895CD
:10037000E1ECF0E080818F7D80830895E1ECF0E096
:100380008081806180830895E1ECF0E08081806865
:10039000808308958093C600089587E60E94A20195
:1003A0000E94AC010E94BE010E94C4010895AC01EC
:1003B00020E00DC09091D601993640F4E92FF0E08D
:1003C000E359FE4F30839F5F9093D6012F5FFA0170
:1003D000E20FF11D30813111EDCF81E080936B018F
:1003E0000E94B201089580916A01089510926A01F5
:1003F000089580916C0108951F920F920FB60F928D
:1004000011248F938091C60080936C0181E08093CA
:100410006A018F910F900FBE0F901F9018951F9239
:100420000F920FB60F9211242F933F934F935F9328
:100430006F937F938F939F93AF93BF93EF93FF93AC
:1004400080916B018823D1F0E091D7018091D60192
:10045000E81760F4F0E0E359FE4F80810E94CA0182
:100460008091D7018F5F8093D70108C010926B01F4
:100470001092D7011092D6010E94B801FF91EF911E
:10048000BF91AF919F918F917F916F915F914F91AC
:100490003F912F910F900FBE0F901F901895F894D9
:0204A000FFCF8C
:1004A200436F6E74726F6C61646F722052474220A8
:1004B2000A0D20496E677265736520522C20472011
:1004C2006F204220706172612063616D62696172A6
:1004D200206C6120696E74656E7369646164206466
:1004E200656C20636F6C6F722073656C6563636902
:1004F2006F6E61646F200A0D2000520047004200B7
:060502004E000A0D00008E
:00000001FF
