:100000000C9434000C9451000C9451000C94510049
:100010000C9451000C9451000C9451000C9451001C
:100020000C9451000C9451000C9451000C9451000C
:100030000C9451000C9451000C9455010C945100F7
:100040000C9451000C9451000C940E020C9421025B
:100050000C9451000C9451000C9451000C945100DC
:100060000C9451000C94510011241FBECFEFD8E026
:10007000DEBFCDBF11E0A0E0B1E0EAE9FAE002C0E6
:1000800005900D92A636B107D9F721E0A6E6B1E0BA
:1000900001C01D92AC3DB207E1F70E949E000C9496
:1000A0004B050C940000EAE7F0E0808186688083CD
:1000B000ECE7F0E080818064808380818F7D8083A5
:1000C0000895ECE7F0E08081807F80838081836009
:1000D0008083EAE7F0E080818064808380917A0009
:1000E00084FFFCCFEAE7F0E080818061808320918B
:1000F00078008091790090E0982F8827822B0895CE
:1001000083E00E946100969587959695879508955E
:10011000873451F0823519F0823479F40AC08AE5C7
:1001200091E00E94E90108958CE591E00E94E901C7
:1001300008958EE591E00E94E901089517B80E94A4
:10014000DF010E9479010E94530078940E94A2016D
:100150002FEF81EE94E0215080409040E1F700C005
:1001600000000E94A8012FEF81EE94E02150804012
:100170009040E1F700C000000E94AE012FEF81EE39
:1001800094E0215080409040E1F700C000004FEF24
:100190006FEF8FEF0E947C0180E091E00E94E90107
:1001A000D2E50E940502882309F10E940B02D82F94
:1001B0000E9488001F92CF9380E691E09F938F93D7
:1001C00086E691E09F938F930E94610286E691E01C
:1001D0000E94E90183E691E00E94E9010E94080281
:1001E0000F900F900F900F900F900F900E94800033
:1001F000C82F682F8D2F0E948F01D3CF84B18062CA
:1002000084B984B1826084B984B1846084B984B5CE
:10021000836884BD85B5826085BD8BE387BDEEE6CE
:10022000F0E08081826080830895853019F46093C6
:100230006D010895813019F460936C010895823046
:1002400011F460936B01089580916A018F5F809330
:100250006A01863910F010926A0190916A018091CA
:100260006D01981720F485B1806285B903C085B10E
:100270008F7D85B990916A0180916C01981720F467
:1002800085B1826085B903C085B18D7F85B99091B4
:100290006A0180916B01981720F485B1846085B95B
:1002A000089585B18B7F85B908951F920F920FB67F
:1002B0000F9211242F933F934F935F936F937F93EC
:1002C0008F939F93AF93BF93EF93FF930E9424016B
:1002D000FF91EF91BF91AF919F918F917F916F911E
:1002E0005F914F913F912F910F900FBE0F901F90F4
:1002F00018950E94FE000895CF93DF93C82FD62F44
:10030000642F82E00E9415016D2F81E00E9415018B
:100310006C2F85E00E941501DF91CF9108958734FD
:1003200049F0823519F0823461F408C085E00E94FA
:100330001501089581E00E941501089582E00E9450
:100340001501089540E060E088E70E947C0108956F
:1003500040E068E780E00E947C01089548E760E0A3
:1003600080E00E947C0108951092C10096E0909375
:10037000C2001092C5008093C4000895E1ECF0E043
:100380008081886080830895E1ECF0E08081806264
:1003900080830895E1ECF0E080818F7D8083089573
:1003A000E1ECF0E08081806180830895E1ECF0E091
:1003B00080818068808308958093C600089587E6D1
:1003C0000E94B4010E94BE010E94D0010E94D60189
:1003D0000895AC0120E00DC09091DA01993640F407
:1003E000E92FF0E0EF58FE4F30839F5F9093DA01E2
:1003F0002F5FFA01E20FF11D30813111EDCF81E065
:1004000080936F010E94C401089580916E01089548
:1004100010926E0108958091700108951F920F92BD
:100420000FB60F9211248F938091C60080937001B4
:1004300081E080936E018F910F900FBE0F901F90FF
:1004400018951F920F920FB60F9211242F933F937E
:100450004F935F936F937F938F939F93AF93BF93CC
:10046000EF93FF9380916F018823D1F0E091DB013E
:100470008091DA01E81760F4F0E0EF58FE4F8081D8
:100480000E94DC018091DB018F5F8093DB0108C05B
:1004900010926F011092DB011092DA010E94CA01E2
:1004A000FF91EF91BF91AF919F918F917F916F914C
:1004B0005F914F913F912F910F900FBE0F901F9022
:1004C0001895AEE0B0E0E7E6F2E00C9422050D8965
:1004D0001E8986E08C831A8309838FEF9FE79E83B2
:1004E0008D83AE01475E5F4F6F89788DCE01019697
:1004F0000E948302EF81F885E00FF11F10822E9693
:10050000E4E00C943E05ABE0B0E0E9E8F2E00C94E6
:1005100014056C017B018A01FC011782168283811C
:1005200081FFCCC1CE0101963C01F6019381F70118
:1005300093FD859193FF81917F01882309F4BAC1CE
:10054000853239F493FD859193FF81917F01853246
:1005500029F4B60190E00E947A04E7CF912C212C77
:10056000312CFFE1F315D8F08B3279F038F480327A
:1005700079F08332A1F4232D20611DC08D3261F00A
:10058000803369F4232D216016C0832D8260382EBC
:10059000E32DE4603E2E2AC0F32DF8601DC037FC29
:1005A0002DC020ED280F2A3040F08E32B9F436FCF1
:1005B00081C1232D2064322E19C036FE06C08AE088
:1005C000989E200D1124922E11C0EAE02E9E200D3F
:1005D0001124222EF32DF0623F2E08C08C3621F418
:1005E000832D8068382E02C0883641F4F70193FDD0
:1005F000859193FF81917F018111B3CF982F9F7DCA
:100600009554933028F40C5F1F4F9FE399830DC0DE
:10061000833631F0833771F0833509F059C021C03A
:10062000F801808189830E5F1F4F88248394912C69
:10063000530113C02801F2E04F0E511CF801A080B5
:10064000B18036FE03C0692D70E002C06FEF7FEF0E
:10065000C5010E946F044C018201F32DFF773F2EEC
:1006600016C0280122E0420E511CF801A080B18082
:1006700036FE03C0692D70E002C06FEF7FEFC50149
:100680000E9464044C01F32DF0683F2E820133FC7C
:100690001BC0822D90E088169906B0F4B60180E266
:1006A00090E00E947A042A94F4CFF50137FC8591FA
:1006B00037FE81915F01B60190E00E947A0421101B
:1006C0002A9421E0821A91088114910471F7E8C0FC
:1006D000843611F0893641F5F80137FE07C0608194
:1006E0007181828193810C5F1F4F08C0608171818D
:1006F000072E000C880B990B0E5F1F4FF32DFF7612
:100700003F2E97FF09C090958095709561957F4F1A
:100710008F4F9F4FF0683F2E2AE030E0A3010E94E8
:10072000B604882E861845C0853731F4232D2F7ED8
:10073000B22E2AE030E025C0932D997FB92E8F3656
:10074000C1F018F4883579F0B5C0803719F08837D2
:1007500021F0B0C0E92FE061BE2EB4FE0DC0FB2D2C
:10076000F460BF2E09C034FE0AC0292F2660B22EC5
:1007700006C028E030E005C020E130E002C020E102
:1007800032E0F801B7FE07C06081718182819381F8
:100790000C5F1F4F06C06081718180E090E00E5FAA
:1007A0001F4FA3010E94B604882E8618FB2DFF77E9
:1007B0003F2E36FE0DC0232D2E7FA22E891458F415
:1007C00034FE0BC032FC09C0832D8E7EA82E05C0DE
:1007D000B82CA32C03C0B82C01C0B92CA4FE0FC0A8
:1007E000FE01E80DF11D8081803321F49A2D997E60
:1007F000A92E09C0A2FE06C0B394B39404C08A2DEA
:10080000867809F0B394A3FC11C0A0FE06C0B21410
:1008100088F4280C922C9B180EC0B21460F4B60118
:1008200080E290E00E947A04B394F7CFB21418F4F7
:100830002B1802C0982C212CA4FE10C0B60180E316
:1008400090E00E947A04A2FE17C0A1FC03C088E7D2
:1008500090E002C088E590E0B6010CC08A2D867851
:1008600059F0A1FE02C08BE201C080E2A7FC8DE23C
:10087000B60190E00E947A04891438F4B60180E34E
:1008800090E00E947A049A94F7CF8A94F301E80DDD
:10089000F11D8081B60190E00E947A048110F5CFAD
:1008A000222009F442CEB60180E290E00E947A0450
:1008B0002A94F6CFF6018681978102C08FEF9FEFD1
:1008C0002B96E2E10C943005FC01059061507040DC
:1008D0000110D8F7809590958E0F9F1F0895FC0109
:1008E0006150704001900110D8F7809590958E0F5F
:1008F0009F1F08950F931F93CF93DF93FB012381D5
:1009000021FD03C08FEF9FEF2CC022FF16C0468150
:100910005781248135814217530744F4A081B18166
:100920009D012F5F3F4F318320838C932681378138
:100930002F5F3F4F3783268314C08B01EC01FB01EF
:100940000084F185E02D0995892BE1F6D8011696F2
:100950008D919C911797019617969C938E9316975D
:10096000CE01DF91CF911F910F910895FA01AA272F
:10097000283051F1203181F1E8946F936E7F6E5FE2
:100980007F4F8F4F9F4FAF4FB1E03ED0B4E03CD090
:10099000670F781F891F9A1FA11D680F791F8A1F73
:1009A000911DA11D6A0F711D811D911DA11D20D0DA
:1009B00009F468943F912AE0269F11243019305D94
:1009C0003193DEF6CF010895462F4770405D419385
:1009D000B3E00FD0C9F7F6CF462F4F70405D4A33D2
:1009E00018F0495D31FD4052419302D0A9F7EACF9A
:1009F000B4E0A6959795879577956795BA95C9F7C9
:100A000000976105710508959B01AC010A2E0694BB
:100A10005795479537952795BA95C9F7620F731F74
:100A2000841F951FA01D08952F923F924F925F92B1
:100A30006F927F928F929F92AF92BF92CF92DF92EE
:100A4000EF92FF920F931F93CF93DF93CDB7DEB753
:100A5000CA1BDB0B0FB6F894DEBF0FBECDBF0994E7
:100A60002A88398848885F846E847D848C849B843E
:100A7000AA84B984C884DF80EE80FD800C811B814C
:100A8000AA81B981CE0FD11D0FB6F894DEBF0FBE7B
:0A0A9000CDBFED010895F894FFCFEB
:100A9A00436F6E74726F6C61646F722052474220AA
:100AAA000A0D20496E677265736520522C20472013
:100ABA006F204220706172612063616D62696172A8
:100ACA00206C6120696E74656E7369646164206468
:100ADA00656C20636F6C6F722073656C6563636904
:100AEA006F6E61646F200A0D2000520047004200B9
:060AFA002575000A0D0045
:00000001FF
